:020000040800F2
:10000000A00D002001010008C9400008913A000835
:10001000B94000086D0B0008DD4C0008000000002E
:10002000000000000000000000000000314900084E
:10003000950B0008000000002D4900083549000814
:100040001B0100081B0100081B0100081B01000820
:100050001B0100081B0100081B0100081B01000810
:100060001B0100081B0100081B0100081B01000800
:100070001B010008710B00081B0100087D0B000824
:10008000890B00081B0100081B0100081B01000868
:100090001B0100081B0100081B010008990B000848
:1000A0001B0100081B0100081B0100081B010008C0
:1000B0001B0100081B0100083D4900081B01000846
:1000C0001B0100081B0100081B0100081B010008A0
:1000D0001B010008594C0008654C0008A14C0008A1
:1000E0001B0100081B0100081B010008DFF80CD0F1
:1000F00000F00EFC00480047AD4D0008A00D0020A8
:100100000648804706480047FEE7FEE7FEE7FEE7B1
:10011000FEE7FEE7FEE7FEE7FEE7FEE739490008F7
:10012000ED000008D2B201E000F8012B491EFBD21D
:1001300070470022F6E710B513460A4604461946F2
:10014000FFF7F0FF204610BDF0B480EA0102D40FA3
:100150004200B2EB410F02D20246084611464A0065
:1001600042D0C30DDDB2C1F3C752AD1A202D35DA2E
:10017000C1F3160141F4000204B15242C5F1200658
:1001800002FA06F12A411044B3EBD05F23D0C4B188
:10019000012DA0EBC35009DCF0BC4FF0004202EA95
:1001A000C352DBB200F5000000F0F6BA400000F1E7
:1001B000807000EBC350A0F1807040EAD17049001C
:1001C00009E0490841EAC071A0EBC35000F5000006
:1001D000400800EBC350F0BC00F0D5BA61420122E8
:1001E00002EB4101001BF6E7F0BC704781F00041D3
:1001F000AAE780F00040A7E780EA010210B502F00C
:100200000043400022D04A001FD0010E01EB1261D2
:10021000C0F35600C2F3560240F4000042F400025C
:10022000A0FB022000047F39140400D0401C50EAD7
:10023000124001D44000491EC2B20C0604EBD0109B
:10024000401C4008802A02D003E0002010BD20F0AE
:100250000100002900DA0020184310BD30B480EA04
:10026000010202F0004530F0004221F0004013D0BE
:1002700090B1C30DD40DC2F31601C0F31600E41AF9
:1002800041F4000140F400027D34914201D3641C2A
:1002900000E04900002C02DA30BC002070474FF427
:1002A00000000023914201D3891A034340084FEA1A
:1002B0004101F7D151B1914202D14FF0004105E027
:1002C00002D24FF0010101E06FF0010103EBC450D5
:1002D000284430BC00F057BA2DE9FE4F804681EA31
:1002E0000300C00F0C46009021F0004123F00045B0
:1002F000B8EB0200A94105D24046214690461C4673
:100300000B46024623F00040104347D0270DC7F3A9
:100310000A00C3F30A510290401A019040286BDA98
:10032000C3F3130040F4801B0098924620B10023D1
:10033000D2EB030A63EB0B0B01985946C0F1400264
:10034000504600F0EFF906460D4650465946019AD0
:1003500000F007FA10EB08006141002487EA11520F
:1003600084EAE7731A4340D0009A62B3019A012AE3
:100370004FEA075215DC001B61EB02014FF000420F
:1003800002EA0752CDE90042001C41F580113246D5
:100390002B4600F03EFA03B0BDE8F08F4046214600
:1003A000F9E7001B61EB0201001C41F58013001806
:1003B0005B412018A2F5001747EB030140EAD57016
:1003C000B6196D4111E06D084FEA360645EAC07571
:1003D0004FEA0752001B61EB0201001C41F580113E
:1003E00049084FEA30000019514132462B4603B00C
:1003F000BDE8F04F00F0FEB9009801224000002354
:10040000D0EB020263EBE073009821464FEAE07400
:10041000B8EB000061EB0401E9E783F000435BE720
:1004200081F0004158E72DE9FE4F81EA030404F012
:10043000004421F0004100944FF0000B23F00043F2
:1004400050EA01045ED052EA03045BD0C3F30A54BD
:10045000C1F30A552C44A4F2F3340194A0FB0254D6
:10046000C1F3130141F48011C3F3130343F4801368
:1004700001FB024400FB034E840A970A44EA8154BC
:1004800047EA8357A4FB076802958D0A05FB078599
:100490004FEA932C04FB0C542705029D4FEA0658A3
:1004A00047EA1637B5EB08056EEB070C870E920E80
:1004B00047EA811742EA8312A7FB0201B6EB0B0160
:1004C00064EB00042B0D43EA0C335E1844EB1C5024
:1004D000DA465146E7FB0201C5F313044FEA0B333A
:1004E00043EA14534FEA0432019C43EA0603A4F1A1
:1004F0000C040294009CCDE900B400F08AF903B02A
:10050000BDE8F08F00200146F9E72DE9F04D81EAC2
:10051000030404F0004B21F0004514464FF0000A9C
:1005200023F0004150EA050220D054EA01021DD018
:10053000C5F30A570246C5F31303C1F31300C1F311
:100540000A5640F4801543F48013A7EB0608101BED
:10055000D64608F2FD3873EB050002D308F1010816
:1005600001E092185B41B8F1000F03DA0020014668
:10057000BDE8F08D00204FF48011064684460EE061
:10058000171B73EB050705D3121B63EB050306432B
:100590004CEA010C49084FEA300092185B4150EADE
:1005A0000107EDD152EA030012D082EA040083EA87
:1005B0000501084305D0101BAB4106D201220023E0
:1005C00006E000224FF0004302E06FF001025310FA
:1005D0001AEB06004CEB085110EB0A0041EB0B0143
:1005E000BDE8F04D00F006B9002801DBC0F1004085
:1005F000002901DBC1F10041814201D20120704795
:1006000000207047002801DBC0F10040002901DB19
:10061000C1F10041814201D901207047002070479B
:10062000C10F80EAE0700844CA079623002100F059
:10063000B3B896230022114600F0AEB800F0004295
:1006400020F00040C10DC0F3160040F400007F29E7
:1006500001DA00207047962903DCC1F19601C840F9
:1006600001E096398840002AF4D04042704720F0DB
:100670000040C10DC0F3160040F400007F2901DAEC
:1006800000207047962903DCC1F19601C8407047ED
:1006900096398840704730B50B460146002020222D
:1006A000012409E021FA02F59D4205D303FA02F57F
:1006B000491B04FA02F52844151EA2F10102F1DCDF
:1006C00030BD2DE9F05F0546002092469B468846E6
:1006D0000646814640241BE02846414647462246BE
:1006E00000F02FF853465A46C01A914110D31146D4
:1006F0001846224600F016F82D1A67EB01084F46FF
:1007000022460120002100F00DF817EB00094E41B0
:10071000201EA4F10104DFDC484631462A46434648
:10072000BDE8F09F202A04DB203A00FA02F1002005
:1007300070479140C2F1200320FA03F3194390401F
:100740007047202A04DB203A21FA02F0002170478A
:1007500021FA02F3D040C2F1200291400843194629
:100760007047202A06DBCB17203A41FA02F043EA11
:10077000E07306E041FA02F3D040C2F1200291405A
:100780000843194670470029A8BF7047401C49001C
:1007900008BF20F00100704710B4B0FA80FC00FAE6
:1007A0000CF050EA010404BF10BC704749B1CCF111
:1007B000200421FA04F411FA0CF118BF012121439D
:1007C0000843A3EB0C01CB1D4FEA00614FEA102058
:1007D00042BF002010BC704700EBC35010440029FA
:1007E000A4BF10BC7047401C490008BF20F00100A6
:1007F00010BC704710B5141E73F1000408DA401CD9
:1008000041F1000192185B411A4301D120F001002F
:1008100010BD2DE9F04D92469B4611B1B1FA81F21F
:1008200002E0B0FA80F220329046FFF77BFF0446E8
:100830000F4640EA0A0041EA0B0153465A46084374
:1008400013D0114653EA010019D0C8F140025046B6
:10085000FFF777FF05460E46504659464246FFF7DA
:1008600061FF084305D0012004E020463946BDE879
:10087000F08D0020054346EAE0762C4337430A9882
:100880006305E40AA0EB08000022FD0A44EA47548D
:100890000A3002D500200146E9E701051019694137
:1008A000DDE9084500196941BDE8F04DA2E7C1F353
:1008B0000A52C1F3130140F2FF3341F480119A420E
:1008C00002DA00200146704740F233439A42A2F216
:1008D000334202DC5242FFF734BFFFF723BF000070
:1008E00030B5041E71F1000404DB4FF000444042B7
:1008F00064EB0101141E73F1000405DB1C464FF08C
:100900000043524263EB0403994208BF904230BD5A
:10091000064C074D06E0E06840F0010394E807004C
:1009200098471034AC42F6D3FFF7E4FB608E000822
:10093000808E0008B0B504462068816811F0010F70
:100940000BD0816821F00101816001F00FF80546AC
:100950002068806810F0010F08D10020B0BD00BFF2
:10096000806810F0010F04BF0020B0BD00F0FEFF52
:10097000411B20680229F3D9816811F0010FEFD0E3
:10098000A06A40F01000A062E06A40F00100E0625E
:100990000120B0BDB0B582B00446002001902168AE
:1009A0008A6812F0010F35D1886840F00100886034
:1009B00040F244004DF68361C2F20000C4F21B31E4
:1009C0000068A0FB0101880C02E000BF019801381B
:1009D000019001980028F9D100F0C8FF0546206871
:1009E000806810F0010F17D100F0C0FF411B206894
:1009F0000329F5D3816811F0010FF1D1A06A40F00D
:100A00001000A062E06A40F00100E062002084F87B
:100A10002400012002B0B0BD002002B0B0BD000033
:100A200040F64C10C2F200000168CA6842F01002A1
:100A3000CA6040F210116422C2F20001023102F0D9
:100A400081BE0000F0B581B040F21015C2F2000581
:100A5000287800284ED00020287040F64C10C2F2B2
:100A6000000002F0FBFA40F2D010C2F20000006871
:100A70004068C0F1640068701FA005F015FD69783A
:100A8000022907D1A978E878AA2908BF002807D148
:100A90002EA00AE004290BD31EA005F085F806E07D
:100AA000AA2908BF012802D122A005F0FDFC69781F
:100AB000A9B100272BA4002616F0FF0F05D016F0D1
:100AC000030004BF0A2005F0E9FCE81981782046FC
:100AD00005F06AF868780136F7B28742ECD30A204D
:100AE00005F0DCFC40F64C10A91C6422C2F20000A8
:100AF00002F028FE01B0F0BD3C424C5545544F4F2A
:100B0000544820554152543320527820466C616736
:100B1000213E0000496E737472756374696F6E20B4
:100B20006572726F7221204C656E6774683A202579
:100B3000640A0000526563656976656420636F6DC1
:100B40006D616E643A203078303100005265636523
:100B50006976656420636F6D6D616E643A203078EC
:100B6000303000002530325820000000FEE7000041
:100B700040F2D010C2F2000000F02ABC40F2500057
:100B8000C2F2000000F024BC40F28010C2F200006B
:100B900000F01EBC70470000802000F0B5BD0000D2
:100BA000EFF3108072B600BFFEE70000B0B5044658
:100BB0000D46002C02BF0420C0B2B0BD03F09EFB66
:100BC000002001212070617040F69411C0B2656070
:100BD000C2F200010C60B0BDB0B582B00446002086
:100BE000019094F82400012802BF022002B0B0BD99
:100BF000012084F824002046FFF79CFE2046FFF7E2
:100C0000C9FE002855D1A06A41F20211884340F084
:100C10000200A06240F24400C2F200000568022017
:100C200000F05EFFB5FBF0F0400001E001980138F4
:100C3000019001980028F9D12068816841F00801ED
:100C4000816000F093FE0546206800BF816811F0C6
:100C5000080F0AD000F08AFE411B20680A29F5D946
:100C6000816811F0080FF1D016E0816841F00401AD
:100C7000816000F07BFE0546206800BF806810F0B0
:100C8000040F0ED000F072FE411B20680A29F5D92E
:100C9000816811F0040FF1D0012010216FF01202D1
:100CA00003E0002001216FF00302A36A1A40114300
:100CB000A162002184F8241002B0B0BDF0B581B06B
:100CC0000022009290F82420012A01D1022186E01E
:100CD000012280F824204B68062B0FD8076803EB0D
:100CE0008303053B3A4652F834EF0C6804FA03FCE0
:100CF0001F2404FA03F32EEA030E1CE00A680768B7
:100D00000C2B0BD803EB8303233B02FA03FC1F22BB
:100D100002FA03F33A4652F8304F0AE003EB83033A
:100D2000413B02FA03FC1F2202FA03F33A4652F84F
:100D30002C4F24EA030E4EEA0C0307F1100507249A
:100D40004FF0000C13600A68896802EB4203092A1D
:100D500088BF1E3B092A88BF07F10C059C409940BB
:100D60002E68A6433143296022F0010110294FF07B
:100D7000000132D142F20841C4F20101A1F108039D
:100D80009F4205D0816A41F020018162012124E067
:100D90000B6813F4000F1FD10B68102A43F40003F3
:100DA0000B6019D140F244014DF68362C2F200019A
:100DB000C4F21B320968A1FB0212910C01EB810104
:100DC00049000091009939B1009901390091002141
:100DD000009A002AF8D100E0002180F824C0C8B2AF
:100DE00001B0F0BD0068C06C7047000070B50446EB
:100DF000002C04BF012070BD264656F8280F30B9DC
:100E00000020E06284F82400204600F09DF820686D
:100E1000816811F0010F20D0816821F0010181600B
:100E200000F0A4FD05462068816811F0010F14D080
:100E300000F09CFD411B20680229F5D9816811F062
:100E4000010FF1D0A06A40F01000A062E06A40F00B
:100E50000100E062A06AA16A27E03268316812F0FE
:100E6000100F22D141F202120023914341F00201FE
:100E7000A162D4E90112012A08BF4FF48073B2F5D0
:100E8000807F08BF1346E5692943257B41EA450C6D
:100E9000217D012918D16DB1A16A41F02001A16223
:100EA000E16A41F00101E1620EE041F01001012030
:100EB000316070BDA1694EF20005CFF6FF7505EBFC
:100EC0004131194341F400634168B2F5807F21F458
:100ED000694141EA03014FF2FD734160CFF6E173CE
:100EE000816801EA030141EA0C01816018BF012A0F
:100EF00006D121690022CFF6F07202EB015200E028
:100F00000022C16A21F470011143C16240F6FE6102
:100F10008068CFF61F710840604507D1002001228C
:100F2000E062A16A62F30101316070BDA06A20F045
:100F3000120040F01000A06254F82C0F40F00101A4
:100F400001202646316070BD80B586B00146002084
:100F5000CDE90400CDE9020040F600000968C4F2C2
:100F6000010000F5E052914201D006B080BD41F28F
:100F70001801C4F202010A6842F400720A600A68A9
:100F800002F400720192019A0A6842F004020A60B7
:100F9000096801F0040101910199202102910321C6
:100FA000039102A900F0BCFB06B080BDF0B581B092
:100FB00000270D460446009700F0D8FC064620683E
:100FC000816811F4807F3CD1416811F4807F04BFB7
:100FD000C16A11F4700F3CD040F24400C2F200002C
:100FE0000768022000F07CFDB7FBF0F1206844F6B2
:100FF000241342F2924C42F29247C2F29243C0F260
:10100000490CC1F2492702691A4206D1C26844F666
:101010002413C0F292031A4241D002693A4203D12A
:10102000C26812EA0C0F44D0076949F24923FC2236
:10103000C0F224031F423DD1C7681F4208BF54229B
:1010400038E0A06A40F02000A06284F824700120FB
:101050008BE0016811F0020F55D1691C0AD07DB9EF
:10106000016811F0020F78D0016811F0020FF7D07B
:1010700049E000BF016811F0020FFBD043E000BF60
:1010800000F074FC811B2068A94203D9016811F0AB
:10109000020F62D0016811F0020FF1D033E0036952
:1010A00029223B4206D1C36813EA0C0F08BF142261
:1010B00000E0542202FB01F70099B94223D2691CD7
:1010C0000AD08DB90099B9423ED3009901310091FF
:1010D0000099B942F6D316E00099013100910099C8
:1010E000B942F9D30FE000BF00F040FC801BA842DA
:1010F00002D90098B84227D3009801300090009898
:10110000B842F1D320686FF012010160A16A41F486
:101110000071A162806800F46020B0F5602F03D1F7
:10112000207B18B1002020E000201EE0A06A20F4FF
:101130008070A062A06A10F4805F02BFA06A40F0D5
:101140000100A062002010E0A06A40F00400A0624C
:10115000002084F82400032007E0A06A40F0040087
:10116000A062002084F824000320C0B201B0F0BDCA
:1011700010B5044694F82400012801D1022010BDC6
:10118000012084F824002046FFF704FC00281EBF3D
:10119000002184F8241010BDA06A40F2013142F20F
:1011A000044CC4F2010C0CF57F72884340F480704B
:1011B000A0622068904227D0A16A21F48011A16228
:1011C000416811F4806F1FBFA16A012363F30D31E1
:1011D000A162A16A002311F4805F4FF000011CBFDF
:1011E000E16A21F00601E1626FF0020184F8243027
:1011F0000160816801F46021B1F5602F21D1904236
:101200001AD04FF4A0011EE0DCF8001011F4702F8A
:10121000D2D0A16A41F48011A16242F60001C4F269
:101220000101884205D042F20041C4F20101884226
:10123000CFD1DCF80010C4E7DCF8001011F4702FF7
:1012400006D04FF48011826811438160002010BDE8
:101250004FF4A001F7E70000B0B5044694F824006D
:10126000012802BF0220C0B2B0BD012084F82400D2
:101270002068816811F0010F1FD0816821F0010101
:10128000816000F073FB0546206800BF806810F0A5
:10129000010F12D000F06AFB411B20680229F5D92A
:1012A000816811F0010FF1D0A06A214640F01000D2
:1012B000A062012051F82C2F07E0214641F20112D3
:1012C00051F8280F20EA0202002042F00102C0B2C9
:1012D0000A60002184F82410B0BD000090F82110AD
:1012E000022912D1016801230A6822F00E020A6065
:1012F0000A6822F001020A60D0E90F1203FA02F232
:101300004A60002180F8213002E00421816301213C
:10131000002280F8202008467047000090F8211035
:10132000022923D102682F2340F2040CC4F20203E5
:10133000C4F2020C11689A4221F00E01116011688A
:1013400021F00101116016DD3023C4F202039A423C
:101350001DD04423C4F202039A421BD05823C4F286
:1013600002039A421BD14FF4803320E004218163B1
:101370000121084670470823C4F202039A420CD0A8
:101380001C23C4F202039A4209D110230FE04FF448
:1013900080730CE04FF4805309E0012307E00CF167
:1013A00068014FF080738A4208BF4FF48013012117
:1013B000CCF8003080F82110002180F82010426B1A
:1013C00022B180B590470021BDE8804008467047B3
:1013D000B0B5D0E90FE140F2040CC4F2020CDEF823
:1013E00000300268146814F0040F1EBF04258D40FD
:1013F00015EA03051ED0116811F0200F02BF116815
:1014000021F0040111602F21C4F202018A4239DD6A
:101410003021C4F202018A425CD04421C4F20201AC
:101420008A425AD05821C4F202018A425AD14FF45A
:1014300080215FE0A50731D502258D401D402DD0CC
:10144000116811F0200F06D1116821F00A01116016
:10145000012180F821102F21C4F202018A4250DDBF
:101460003021C4F202018A4257D04421C4F2020161
:101470008A4255D05821C4F202018A4255D14FF414
:1014800000315AE00821C4F202018A4228D01C210E
:10149000C4F202018A4225D140212BE0250756D50E
:1014A00008258D402B4008BFB0BD136823F00E0304
:1014B0001360012202FA01F1CEF8041000218263C8
:1014C00080F8212080F82010016B00293FD0BDE872
:1014D000B04008474FF480610CE04FF4804109E0D0
:1014E000042107E00CF168034FF080619A4208BFC5
:1014F0004FF48001CCF80010C16A41B3BDE8B040A0
:1015000008470821C4F202018A420CD01C21C4F20F
:1015100002018A4209D120210FE04FF400710CE052
:101520004FF4005109E0022107E00CF168034FF08D
:1015300000719A4208BF4FF40011CCF8001000214E
:1015400080F82010816A11B1BDE8B0400847B0BDF5
:1015500001460120002908BF7047B0B5D1F800C08E
:101560004FF6F8734CF6CD42CBF6FD73CCF6CC4279
:101570006344A3FB02234FF6FC72C3F6FF7202EA38
:1015800093020023C4F20203C1E90F32022243F6A0
:10159000F07381F82120DCF8002022EA030ED1E963
:1015A0000132D1E9034543EA0E031A434B69224352
:1015B0002A431A438B691A43CB691A43CCF800209B
:1015C00000228A6381F8210081F820200020BDE8F4
:1015D000B0407047B0B590F820C0BCF1010F34D0D6
:1015E0004FF0010E80F820E090F821C0BCF1010F0F
:1015F00028D14FF0020C80F821C04FF0000CC0F849
:1016000038C0D0F800C0DCF8004024F00104CCF869
:101610000040D0E90F450EFA05F56560CCF80430BE
:101620004368102B0B4608BF1346CCF8083008BFA0
:101630000A46CCF80C20C16ADCF8000041B140F049
:101640000E000DE0002180F820100220C0B2B0BDD5
:1016500020F00400CCF80000DCF8000040F00A00A4
:10166000CCF80000DCF8000040F00100CCF80000ED
:101670000020C0B2B0BD000070B505466E1C00F081
:1016800075F9044636B140F23800C2F20000007825
:10169000054401E04FF0FF3500F068F9001BA84257
:1016A000FAD370BD802818BF704710B582B040F6DD
:1016B00000008021C4F2010000F044F9D0B1BB2049
:1016C00001218DF807000DF1070002F0C3F947F280
:1016D000F4400021802240230024C0F60000009046
:1016E000002002F095FF03F05DF840F21400C2F212
:1016F0000000048040F698100121C2F20000017041
:1017000002B0BDE81040704740F21441C4F201013C
:101710000A6802421CBF0860FFF7C4BF70470000A0
:101720002DE9F04F83B0D1F800E0BEF1000F00F0DA
:10173000058141F2004204234FF6FF7A40F200484F
:1017400001244FF000094FF0000BC4F20102C1F276
:10175000100AC4F20108904200F1140208BF0323EA
:1017600001920093002300BF04FA09FC1EEA0C0F4B
:1017700000F0DB804F68574512DC122F55D80F243C
:10178000DFE807F0350A4448545454545454545430
:1017900054545454544B4F00D1F80CB046E000BFA1
:1017A0004FF6FF72C1F22102974210DC00220F2493
:1017B000C1F2110297421EBF0022C1F212029742EB
:1017C00015D00022C1F22102974210D02EE0002253
:1017D0000F24C1F2220297421EBF0022C1F2310241
:1017E000974204D00022C1F2320297421ED18A6889
:1017F0004AB1012A019A4FF0080B08BF00F110020C
:10180000C2F800C012E04FF0040B0FE0CA6802F10A
:10181000080B0BE04FF0000B08E0CA6802F1040B64
:1018200004E0CA6802F10C0B00E00F24B9F1080FC4
:1018300002464FF6F8754E4628BF0432C3F6FF75D0
:10184000176828BF2E44B60004FA06F50BFA06F610
:10185000AF4337431760CA79D20601D4012464E04C
:1018600041F218020F244FEA9906C4F2020215460B
:101870002A6842F001022A602A6803F00C0502F08F
:101880000102029204FA05F2029FA8F57E7757F84A
:10189000264024EA020240F60004C4F20104A042F9
:1018A0000ED040F60044C4F20104A0420AD041F236
:1018B0000004C4F20104A042009C08BF022402E01C
:1018C000002400E0012404FA05F501242A4347F826
:1018D000262040F20C474D68D8F80820C4F20107D2
:1018E00015F4801F0CBF22EA0C0242EA0C02C8F871
:1018F0000820AA023A6854BF22EA0C0242EA0C020B
:101900003A60AA03D8F8042054BF22EA0C0242EA43
:101910000C02C8F80420EA03D8F8002054BF22EAD9
:101920000C0242EA0C02C8F80020D1F800E009F1EC
:10193000010904333EFA09F27FF416AF03B0BDE8A3
:10194000F08F00008068084018BF01207047000039
:10195000C26802EA0103914341EA03410161704711
:10196000002A08BF090401617047000040F23800F6
:10197000C2F200008068704740F23800C2F20000F6
:1019800001788268114481607047000080B542F29E
:101990000000C4F20200016841F010010160032060
:1019A00000F08EF80F2000F005F800F025F8002078
:1019B00080BD000070B540F2380604464FF47A71DD
:1019C000C2F200063078B1FBF0F040F24401C2F2FE
:1019D00000010968B1FBF0F000F00EFD01250F2CAD
:1019E00008D838B94FF0FF3021460022002500F01A
:1019F00035F87460284670BD82B041F218000222AA
:101A0000C4F20200016841F001010160016801F0C7
:101A1000010101910199416841F0805141604068A4
:101A200000F08050009000980420C4F2010001688A
:101A300062F31A61016002B0704700000028B8BF6D
:101A4000704700F01F010122400902FA01F14EF235
:101A50000012CEF2000242F82010704710B500F0DC
:101A60000F034EF60C5E00F1604CB0F1FF3FA3F1A6
:101A70000403CEF2000E734403F10C04C8BF0CF54E
:101A80006444DEF80000C0F3022000F1040CC31E21
:101A900080F00700BCF1070F4FF0010C38BF0023A6
:101AA000042828BF04200CFA00F0013808400CFA82
:101AB00003F10F319840114008430001207010BD20
:101AC0004EF60C514FF6FF03CEF200010A681A40A1
:101AD00060F30A2242F0806040F0FD7008607047B9
:101AE00010B541F204040128C4F202040BD002280C
:101AF00024D0102805D1216854F8040C10F0807F00
:101B000027D1002010BDE06940F202310140B1F55B
:101B1000817F04BF4FF4004010BD00F44070B0F569
:101B2000407F23D0B0F5007F1CBF002010BD206A8D
:101B300049F64041800701EAE07010BD00F0BAF9B3
:101B400021680222C1F3813102EB4101B0FBF1F0C7
:101B500010BDC1F3834016A211F4803F105C0DD17B
:101B600040F60011C0F23D01484313E054F8040C64
:101B70004FF22441800301EAE07010BD216810A2F9
:101B8000C1F34041515C41F20022C0F27A02B2FB43
:101B9000F1F14843216811F4800F18BF10BD4AF6D7
:101BA000AB214000CAF6AA21A0FB0101480810BDE4
:101BB00002030405060708090A0B0C0D0E0F10108E
:101BC000010200002DE9F04182B0044641F21C06FA
:101BD0002078C4F20206C00761D0306847F20007DF
:101BE000C4F2000710F0805F0BD130684FF001089D
:101BF00040F080503060306800F0805001900198D3
:101C000001E04FF00008386810F4807F11D1386887
:101C100040F480703860FFF7A9FE0546386810F47C
:101C2000807F06D1FFF7A2FE401B6428F6D903206F
:101C30004EE0706810F4407023D0616801F4407188
:101C400088421ED0706840F240410122C4F2422115
:101C50000A6000220A6020F4407110F0010F7160E8
:101C60000FD0FFF783FE054641F28837706810F009
:101C7000020F06D1FFF77AFE411B0320B942F5D9C6
:101C800026E070686168B8F1010F20F4407040EA06
:101C90000100706002BF306820F080503060206822
:101CA00010F0020F07D056F8181CA26821F440412A
:101CB000114346F8181CC00601D4002008E056F86D
:101CC000180CE16820F48000084346F8180C002046
:101CD000C0B202B0BDE8F0812DE9F04104460D46E6
:101CE000002C00F0AA8041F20408C4F20208D8F8DF
:101CF000FC0F00F00700A8420DD2D8F8FC0F20F02E
:101D000007002843C8F8FC0FD8F8FC0F00F00700C4
:101D1000A84240F09280206810F0020F17D04107CF
:101D200042BFD8F8001041F4E061C8F80010010784
:101D300042BFD8F8001041F46051C8F80010D8F83C
:101D40000010A26821F0F0011143C8F80010C0078C
:101D50002FD06068012805D158F8041C11F4003F09
:101D60006BD008E058F8041C022802D1890164D520
:101D700001E0890761D5D8F8001021F0030108437C
:101D8000C8F80000FFF7F2FD064641F2883700BFB1
:101D9000D8F80000616800F00C00B0EB810F08D0AB
:101DA000FFF7E4FD801BB842F2D90320C0B2BDE8C2
:101DB000F081D8F8FC0F00F00700A8420CD9D8F841
:101DC000FC0F20F007002843C8F8FC0FD8F8FC0FE0
:101DD00000F00700A84230D1206810F0040F07D0AF
:101DE000D8F80010E26821F4E0611143C8F800104F
:101DF000000708D5D8F80000216920F4605040EAB7
:101E0000C100C8F80000D8F8001041F20020C0F26C
:101E10007A0001F00C02082A1CD148F60433C1F301
:101E2000834211F4803FC0F600039A5C09D140F66A
:101E30000010C0F23D0050430CE00120C0B2BDE8EC
:101E4000F081D8F8001050430FA2C1F34041515C1B
:101E5000B0FBF1F0D8F8001046F2DC42C0F6000208
:101E6000C1F30311515CC84040F24401C2F20001C9
:101E7000086040F23C00C2F200000068FFF79AFDE3
:101E80000020C0B2BDE8F0810102000040F2440031
:101E900041F2040146F2EC42C2F20000C4F2020137
:101EA000C0F6000200680968C1F30221515CC84015
:101EB0007047000040F2440041F2040146F2EC4257
:101EC000C2F20000C4F20201C0F600020068096814
:101ED000C1F3C221515CC840704700002DE9F047B2
:101EE00082B0044674B3207841F2000A41F2200720
:101EF000C4F2020AC4F20207C00763D057F81C0CF0
:101F000000F00C0004281FD057F81C0C00F00C0047
:101F1000082804D157F81C0C10F4803F14D16068D5
:101F2000D8B1B0F5803F08D0DAF80010B0F5A02F96
:101F30002ED141F48020CAF80000DAF8000040F405
:101F400080302DE00120B2E1DAF8000010F4003F0B
:101F500038D06068B0BB0120A9E1DAF8000020F4B5
:101F60008030CAF80000DAF8000020F48020CAF8B7
:101F70000000FFF7FBFC0546DAF8000010F4003F14
:101F800020D0FFF7F3FC411B03206429F4D98EE134
:101F900021F48030CAF80000DAF8000020F4802034
:101FA000CAF80000FFF7E2FC054600BFDAF80000BF
:101FB00010F4003F06D1FFF7D9FC401B6428F5D987
:101FC000032074E1207840F20008C4F24228800720
:101FD00038D557F81C0C10F00C0F21D057F81C0CFA
:101FE00000F00C00082804BF57F81C0C10F4803FC8
:101FF00016D02069002800F0A9800120C8F8000050
:10200000FFF7B4FC054600BFDAF8000010F0020F3D
:102010000FD1FFF7ABFC401B0228F5D9032046E1A6
:10202000DAF8000010F0020F1CBF2069012840F010
:102030008B80DAF80000616920F0F80040EAC10006
:10204000CAF800002078000738D5A06988B10120BF
:10205000C8F88004FFF78AFC054600BF786810F0D6
:10206000020F18D1FFF782FC401B0228F6D903208B
:102070001DE10020C8F88004FFF778FC054600BF8A
:10208000786810F0020F19D0FFF770FC401B02288F
:10209000F6D903200BE140F2440044F6D351C2F2DA
:1020A0000000C1F262010068A0FB0101480A019032
:1020B00000BF0198411E00280191F9D12078400706
:1020C00040F1908057F8040C10F0805F0ED157F863
:1020D000040C4FF0010940F0805047F8040C57F809
:1020E000040C00F080500090009801E04FF00009CF
:1020F00046F20006CFF6FE765AF8060010F4807F0E
:1021000014D15AF8060040F480704AF80600FFF730
:102110002DFC05465AF8060010F4807F06D1FFF723
:1021200025FC401B6428F5D90320C0E0E06800B31B
:10213000012805D03968052833D141F00400386002
:10214000386840F0010032E00120B0E00020C8F81B
:102150000000FFF70BFC0546DAF8000010F0020F54
:102160003FF470AFFFF702FC411B03200229F3D9B3
:102170009DE0386820F001003860386820F00400E5
:102180003860FFF7F3FB054641F28836386810F0F7
:10219000020F1ED0FFF7EAFB411B0320B142F5D925
:1021A00085E021F001003860386820F004003860D4
:1021B000FFF7DCFB054641F2883600BF386810F0B7
:1021C000020F06D1FFF7D2FB401BB042F6D9032025
:1021D0006DE0B9F1010F02BF57F8040C20F08050F8
:1021E00047F8040CE669002E60D057F81C0C00F08C
:1021F0000C00082803D1012E22D1012057E0002035
:10220000C8F86000FFF7B2FB0546022E0CD100BFF4
:10221000DAF8000010F0007F20D0FFF7A7FB411B89
:1022200003200229F4D942E0DAF8000010F0007F20
:102230003CD0FFF79BFB411B03200229F4D936E079
:1022400057F81C0C216A00F480328A4233D1616A4B
:1022500000F47010884229D0012028E0206AB0F5EF
:10226000803F07D157F81C1CA26821F400311143AC
:1022700047F81C1C57F81C1C21F474110843616AB0
:10228000084347F81C0C0120C8F86000FFF76EFBFC
:10229000044600BFDAF8000010F0007F06D1FFF717
:1022A00065FB011B03200229F4D900E00020C0B225
:1022B00002B0BDE8F0870120F9E7000070B50446E0
:1022C000002C02BF0126304670BD606A20B100209C
:1022D000206104F1140005E06068B0F5827F03D04E
:1022E00004F11C000021016000264FF0000CA662E2
:1022F00094F8510038B9204684F8506000F03CF85A
:10230000A06A00F4005C022184F8511021680A6878
:1023100022F040020A60D4E90123D4E9030502F463
:10232000827203F4044300F400601A43104305F082
:1023300002021043626902F001021043A26902F432
:1023400000731843E36903F038031843236A03F06A
:102350008003184340EA0C000860042000EA1240A1
:102360004860C86920F40060C8610120666584F88F
:102370005100304670BD000070B586B0002640F6B2
:102380000044CDE90466CDE90266C4F201040068A8
:10239000A4F55441884201D006B070BD41F2180046
:1023A00002ADC4F20200416841F4804141604168DD
:1023B00001F4804101910199016841F00801016037
:1023C0002946006800F00800019001984FF4204071
:1023D000029002200390032005902046FFF7A0F909
:1023E0004FF480402946CDE9020620460496FFF7C7
:1023F00097F906B070BD0000411E0020B0EB116FD0
:102400001CBF012070474EF21002F023CEF20002F2
:1024100051604EF62351CEF200010B7007219060FF
:1024200011607047704700007047000090F83C2032
:10243000012A02BF0221C8B27047B0B501F10805F8
:10244000D1E900CE3CCDC96923F47C5322F470520B
:102450001A432EF4F0431A432CF4E0431A4324F4B5
:10246000C0431A432A4322F4804211430268516454
:10247000002180F83C10BDE8B040C8B270470000B1
:1024800090F83C300222012B34D080B5012380F833
:102490003C3080F83D2002685368D2F808C023F031
:1024A000700E0B6843EA0E03536040F2FF73C4F2F0
:1024B00000039A42BDE8804005DCB2F1804F0ED0A7
:1024C00040F2004307E042F60043C4F201039A429F
:1024D00005D040F60003C4F200039A4204D14968D3
:1024E0002CF08003194391600121002280F83D10F7
:1024F00080F83C20D0B2704710B50446002C04BFD1
:10250000012010BD94F83D0028B9002084F83C005B
:10251000204600F065F8022040F2FF7342F6004CBE
:1025200084F83D00C4F20003C4F2010C2068026884
:10253000984205DCB0F1804F0AD040F2004103E040
:10254000604505D040F60001C4F20001884203D185
:1025500022F07001A2680A43984205DCB0F1804F76
:102560000AD040F2004103E0604505D040F600018A
:10257000C4F20001884203D122F4407122690A4367
:10258000A16922F08002604541EA02010160E16830
:10259000C1626168816204BF6169CCF830100121B9
:1025A0004161026912F0010F1EBF026922F00102AF
:1025B0000261002084F8461084F83E1084F83F1031
:1025C00084F8401084F8411084F8421084F84310D5
:1025D00084F8441084F8451084F83D1010BD0000C4
:1025E00080B584B0016840F2004241F21C00C4F2A0
:1025F0000002C4F20200914219D040F60002C4F277
:10260000000291421ED042F60042C4F20102914201
:1026100016D150F8041C41F4006140F8041C50F835
:10262000040C00F400600390039804B080BD0168BE
:1026300041F002010160006800F00200029002987F
:1026400004B080BD0168002241F004010160002156
:10265000006800F00400019001981E20FFF7FEF9C9
:102660001E2004B0BDE88040FFF7E8B990F83D10A7
:1026700001291CBF01207047022180F83D1000682D
:10268000C16841F00101C16040F2FF71C4F2000174
:10269000884205DCB0F1804F0ED040F2004107E0E7
:1026A00042F60041C4F20101884205D040F6000123
:1026B000C4F20001884206D1816801F007010629B1
:1026C00004BF00207047016841F001010160002053
:1026D0007047000090F83C300222012B00F0C580CA
:1026E00080B5012380F83C3080F83D204FF67772AA
:1026F000D0F800C0DCF8083023EA0202CCF8082049
:102700000B684F2B28DC1F2B43DD202B18BF302BF1
:1027100043D0402B40F0AB80D1F804E0C968DCF82E
:102720002030DCF8202022F00102CCF82020DCF858
:10273000182022F0F00242EA0111CCF8181023F020
:102740000A0141EA0E01CCF82010DCF8081021F053
:10275000770141F047017DE06F2B26DDB3F5005F87
:1027600047D0B3F5805F77D0702B40F08080D1E9FF
:102770000123C9681A4342EA0121DCF8082022F447
:102780007F421143CCF80810DCF8081041F07701C3
:1027900060E0002B18BF102B69D1DCF8081021F085
:1027A0007701194341F0070154E0502B33D0602BDF
:1027B0005DD1D1F804E0C968DCF82030DCF82020D5
:1027C00022F01002CCF82020DCF8182022F470420D
:1027D00042EA0131CCF8181023F0A00141EA0E11B1
:1027E000CCF82010DCF8081021F0770141F06701E7
:1027F00030E0D1E90123C9681A4342EA0121DCF83B
:10280000082022F47F421143CCF80810DCF80810AD
:1028100041F480411EE0D1F804E0C968DCF82030C2
:10282000DCF8202022F00102CCF82020DCF818206F
:1028300022F0F00242EA0111CCF8181023F00A014C
:1028400041EA0E01CCF82010DCF8081021F07701E5
:1028500041F05701CCF808100022012180F83D100A
:10286000002180F83C10BDE88040D0B270470122C2
:10287000F3E700007047000090F83C30012B02BFE6
:102880000223D8B270474FEAB2020123032A80F82C
:102890003C3000F29F80F0B5DFE802F0021B3A56B0
:1028A000D1E900C50368CC6840F2FF77C4F20007A5
:1028B000D3F820E01A6ABB4222F001021A621A46DB
:1028C00052F8186F63DCB3F1804F6CD040F20047D0
:1028D00065E0D1E900320668CF68356A346A1202D1
:1028E00024F0100434624FF2FF0422EA040432465A
:1028F00067F30F3452F8187F27F4734727431760A4
:10290000A02707EA031325F0A0073B43336237E013
:10291000D1E900370668CA68356A346A62F3071776
:10292000324624F48074346252F81C4F24F0F304CD
:1029300027431760C3F3560363F3492535621368D1
:1029400023F00C0313603EE0D1E900320668CF6843
:10295000356A346A120224F4805434624FF2FF0460
:1029600022EA0404324667F30F3452F81C7F27F43E
:10297000734727431760C3F3520363F34D35356242
:10298000136823F440631360896809021CE042F66F
:102990000047C4F20107BB4205D040F60007C4F26D
:1029A0000007BB421BD126F0030635430CF00A0793
:1029B0002EF00A0664F3071537439D611F629F6975
:1029C00027F00C079F618968136819430023116081
:1029D000BDE8F040002180F83C10D8B2704746F0C6
:1029E0000105E3E710B50446002C04BF012010BD2B
:1029F00094F83D0028B9002084F83C00204600F0FF
:102A000065F8022040F2FF7342F6004C84F83D0066
:102A1000C4F20003C4F2010C20680268984205DC8D
:102A2000B0F1804F0AD040F2004103E0604505D08C
:102A300040F60001C4F20001884203D122F0700187
:102A4000A2680A43984205DCB0F1804F0AD040F2F8
:102A5000004103E0604505D040F60001C4F20001EA
:102A6000884203D122F4407122690A43A16922F00D
:102A70008002604541EA02010160E168C16261686B
:102A8000816204BF6169CCF83010012141610269A3
:102A900012F0010F1EBF026922F001020261002044
:102AA00084F8461084F83E1084F83F1084F84010F3
:102AB00084F8411084F8421084F8431084F84410DC
:102AC00084F8451084F83D1010BD000080B586B034
:102AD0000021CDE90411CDE902110068B0F1804F69
:102AE00001D006B080BD41F21800C4F20200426875
:102AF00042F001024260426802F001020192019A32
:102B0000026842F004020260006800F004000190D4
:102B100001980120CDE9020140F60000049102A9CC
:102B2000C4F20100FEF7FCFD06B080BDB0B504465E
:102B30002068C168026901EA0205A90714D56FF08F
:102B40000201016101212177806910F0030F03D098
:102B50002046FFF78FFE05E0204600F075F820467E
:102B600000F0E4F900202077680715D520686FF0A1
:102B70000401016102212177806910F4407F03D0B4
:102B80002046FFF777FE05E0204600F05DF820467E
:102B900000F0CCF900202077280715D520686FF0C9
:102BA0000801016104212177C06910F0030F03D0EF
:102BB0002046FFF75FFE05E0204600F045F820467E
:102BC00000F0B4F900202077E80615D520686FF0F2
:102BD0001001016108212177C06910F4407F03D002
:102BE0002046FFF747FE05E0204600F02DF820467E
:102BF00000F09CF900202077E80706D020686FF0ED
:102C000001010161204600F0F1F9280606D520688F
:102C10006FF0800101612046FFF704FC680606D5CD
:102C200020686FF040010161204600F013FAA80609
:102C300058BFB0BD20686FF0200101612046BDE89B
:102C4000B040FFF7F1BB00007047000090F83C3047
:102C5000012B02BF0223D8B270474FEAB202012310
:102C6000032A80F83C3000F2E5802DE9F04142F67D
:102C7000004CC4F2010CDFE802F0023870AA0268CE
:102C8000146A136A624523F0010324F002041362FC
:102C90001346D2F8048053F8185F8F680E6844EA30
:102CA000070425F0730747EA060E0DD1D1F80CC0D2
:102CB000D1E9055628F4407724F00C043D432CF06C
:102CC000040745EA06083C43C2F80480C2F818E04D
:102CD0004F6857631462976947F0080797619769CF
:102CE00027F00407976109699EE00268146A136A75
:102CF000624523F0100324F0200413621346D2F837
:102D000004E053F8185F8F680E6825F4E64544EA3E
:102D1000071445EA062511D1D1F80CC0D1E9058781
:102D20002EF4406646EA880646EA870E6FF04F06A4
:102D300006EA0C1724F0C00647EA0604C2F804E0CD
:102D400095614F6897631462976947F400679761CC
:102D5000976927F48067976164E00268146A136AD0
:102D6000624523F4807324F4007413621346D2F88E
:102D700004E053F81C5F8F680E6825F0730544EA81
:102D8000072445EA060512D1D1F80CC0D1E9058720
:102D90002EF4405646EA081646EA071E4FEA0C276C
:102DA00040F2FF46B74324F4406647EA0604C2F8FF
:102DB00004E0D5614F68D7631462D76947F008070C
:102DC000D761D76927F00407D76109692CE0026849
:102DD000176A136A624523F4805327F4005713627D
:102DE0001346D2F8048053F81C4F8D680E6824F403
:102DF000E64447EA053E44EA062402BF4F6928F448
:102E0000804646EA8718C2F80480D4614F68176488
:102E1000C2F820E0D76947F40067D761D76927F483
:102E20008067D761096909021A6811431960002394
:102E3000BDE8F041002180F83C10D8B27047000096
:102E400010B50446002C04BF012010BD94F83D00CD
:102E500028B9002084F83C00204600F065F80220E4
:102E600040F2FF7342F6004C84F83D00C4F20003C8
:102E7000C4F2010C20680268984205DCB0F1804F72
:102E80000AD040F2004103E0604505D040F6000161
:102E9000C4F20001884203D122F07001A2680A4303
:102EA000984205DCB0F1804F0AD040F2004103E0C7
:102EB000604505D040F60001C4F20001884203D10C
:102EC00022F4407122690A43A16922F08002604520
:102ED00041EA02010160E168C1626168816204BF88
:102EE0006169CCF8301001214161026912F0010FD3
:102EF0001EBF026922F001020261002084F8461020
:102F000084F83E1084F83F1084F8401084F8411093
:102F100084F8421084F8431084F8441084F8451073
:102F200084F83D1010BD000070470000704700009D
:102F300039B10322082908BF0222042908BF01224F
:102F400000E00022024492F83E20012A1CBF01202A
:102F50007047022241B1082909D0042914BF80F822
:102F6000412080F83F2004E080F83E2001E080F816
:102F70004020006801F01F01012202FA01F1026AFB
:102F80008A430262026A1143016242F64441C4F27A
:102F90000101A1F14402904202BF0A6842F40042DA
:102FA0000A6040F2FF71C4F20001884205DCB0F112
:102FB000804F0ED040F2004107E042F60041C4F2DB
:102FC0000101884205D040F60001C4F200018842A8
:102FD00006D1816801F00701062904BF002070476F
:102FE000016841F0010101600020704740F6740162
:102FF000C2F20001884218BF704740F21000012160
:10300000C2F200000170017070470000B0B50446C4
:10301000022094F83C20012A1AD0012584F83C5063
:1030200084F83D00204601F08FFC00284FF001009D
:1030300009D12068C16821F04001C160C16821F454
:103040008041C1600020002184F83D5084F83C108C
:10305000C0B2B0BD704700007047000010B5044614
:103060002068416994F84120212A21D111F0800182
:1030700001D11DE0206850E8050F216820F0800094
:1030800041E80502002AF5D1A06B002818BFFEF721
:1030900025F900BF206850E8030F216820F0C00028
:1030A00041E80302002AF5D1202084F8410020687D
:1030B000416994F84220222A02D111F0400102D144
:1030C000002010BD206850E8050F216820F0400066
:1030D00041E80502002AF5D1E06B002818BFFEF791
:1030E000FDF800BF206850E8030F216820F49070BD
:1030F00041E80302002AF5D1206850E8050F216855
:1031000020F0010041E80502002AF5D1206B0128DA
:103110000AD100BF206850E8030F216820F010009A
:1031200041E80302002AF5D1202084F84200002063
:103130002063002010BD000070470000F0B581B092
:10314000044620680168C268456901F02F0602F054
:103150002003202E06D12BB1204601B0BDE8F0405F
:1031600001F014BD5FEA017C08D005F0010E12F4F5
:10317000907F8EF001055AD1002D58D01140CA061B
:10318000226B3ED5012A3CD10021009101680091BB
:10319000416800910099416911F0400F40F0D680DC
:1031A000A18DE28DE38D002B00F03E81891A89B25A
:1031B00009B939E1206850E8030F226820F49070C3
:1031C00042E80303002BF5D1206850E8050F226880
:1031D00020F0010042E80503002BF5D1202084F8FF
:1031E00042000020206300BF206850E8030F2268DF
:1031F00020F0100042E80303002BF5D102206063A9
:10320000E9E00A0640F1ED8094F84110212940F0F0
:103210000B81A168B1F5805F04BF2169002900F02E
:10322000F580216A4A1C226209784160F5E0CE07E8
:1032300006D012F480761EBF666C46F00106666406
:1032400001F00407012686EA97072F4302BF676C47
:1032500047F00207676401F0020786EA5706354324
:1032600002BF656C45F00405656453EA0E0318BFA0
:103270000123BCF1000F05D5012B02BF636C43F0A5
:1032800008036364636C002B00F0CE801140890654
:1032900003D5204601F07AFC20684169626C01F098
:1032A000400102F00802114307D12046FFF744FF16
:1032B0000020606401B0F0BD206850E8030F216871
:1032C00020F4907041E80302002AF5D1206850E80C
:1032D000050F216820F0010041E80502002AF5D120
:1032E000206B01280AD100BF206850E8030F216835
:1032F00020F0100041E80302002AF5D1202084F8D4
:103300004200002020632068416911F0400F02D183
:1033100076E000BF206850E8050F216820F04000EB
:1033200041E80502002AF5D1E06B002868D044F698
:103330003121C0F600014163FDF7F0FF002873D092
:10334000E06B416B01B0BDE8F0400847E26B1168EB
:103350004B689EB2002E67D0A18D8E4264D2E38569
:103360009269202A01D131E0206850E8030F2168DA
:1033700020F4807041E80302002AF5D1206850E86B
:10338000050F216820F0010041E80502002AF5D16F
:10339000206850E8050F216820F0400041E8050250
:1033A000002AF5D1202084F842000020206300BFCD
:1033B000206850E8030F216820F0100041E8030264
:1033C000002AF5D1E06BFDF789FFA18D0220606333
:1033D000E08D081A81B2204601B0BDE8F040FFF749
:1033E0003BBE490620D5C16821F04001C1602020C4
:1033F00084F84100204601B0BDE8F04000F0B2BAC8
:10340000204601B0BDE8F040FFF796BE216A31F8D2
:10341000022B6FF35F2242602162E18C4FF6FF7254
:1034200001391142E18401D001B0F0BDC16821F041
:103430008001C160C16841F04001C16001B0F0BDD0
:1034400010B50446002C04BF012010BD94F84100C3
:1034500028B9002084F84000204600F061F82420BC
:1034600084F841002068C16821F40051C1600169FD
:10347000E26821F44051114341F20C620161D4F839
:1034800008C0D4E904E3C16891434EEA0C021A4330
:103490001143C1604169A26921F440711143416146
:1034A00043F60001C4F20101884202D0FEF7EEFCAF
:1034B00001E0FEF7FFFC192148F21F5C4843D4E904
:1034C0000012C5F2EB1C9200B0FBF2F0A0FB0C3234
:1034D00052096FF0630302FB0300322303EB001079
:1034E000A0FB0C03F02000EA531000EB0210C3F322
:1034F000431210438860086920F4904008614869CD
:1035000020F02A004861C86840F40050C8600020DC
:103510002021606484F8411084F84210606310BD7B
:103520002DE9F04385B00027044644F2004240F6FE
:10353000004540F2300841F21800CDE90377CDE9AB
:103540000177C4F20002C4F20105C4F20208C4F219
:103550000200216891425ED044F60002C4F20002EB
:10356000914200F0A48043F60002C4F201029142AD
:1035700040F0E580016801AE41F4804101600168DE
:1035800001F4804100910099016841F00801016057
:103590003146006800F0080000900098402001903B
:1035A00002200290032004902846FEF7B9F84FF05D
:1035B0008009002728463146CDF80490CDE90277EE
:1035C000FEF7AEF8042040F25005C4F20100C2F24A
:1035D0000005016841F0E06141F00401016008F17B
:1035E00028004FF40051C5E900072846C5E90279D3
:1035F000C5E90477C5E90671FDF7AAFF002818BFE1
:10360000FDF7CEFA252004210022E5636C62FEF767
:1036100025FA252046E04168A5F5806501AE41F414
:1036200000314160416801F4003100910099016866
:1036300041F0040101603146006800F00400009090
:103640000098042001900220029003200490284654
:10365000FEF766F808203146CDE9010728460397B2
:10366000FEF75EF840F2801508F13C0080214FF42F
:103670000052C2F20005C5E900072846C5E90271FB
:10368000C5E90477C5E90672FDF762FF002818BF97
:10369000FDF786FA262003210022E5636C62FEF71F
:1036A000DDF92620FEF7CAF905B0BDE8F0834168D0
:1036B00001AE41F480214160416801F48021009114
:1036C0000099016841F0080101603146006800F08E
:1036D0000800009000984FF4806001900220029052
:1036E000032004902846FEF71BF84FF400600027E3
:1036F000314601902846CDE90277FEF711F840F2F5
:10370000D01580204FF44051C2F20005C5E9008772
:10371000C5E902702846C5E90477C5E90671FDF7D9
:1037200017FF002818BFFDF73BFA272002210022CF
:10373000E5636C62FEF792F92720FEF77FF905B08A
:10374000BDE8F083B0B582B0044613460A4694F84B
:10375000420020284ED1002A4FF0010018BF002B54
:1037600049D00025222044F6E92144F6753C44F670
:103770003D2E2563A262A385656484F84200C0F6ED
:103780000001C0F6000CC0F6000EE06B00F1280747
:1037900087E80250456321680431FDF71BFF01955E
:1037A000206801680191416801910199216900290E
:1037B00001D109E0206850E8030F216840F48070CF
:1037C00041E80302002AF5D1206850E8050F21687E
:1037D00040F0010041E80502002AF5D1206850E8D8
:1037E000050F216840F0400041E80502002AF5D1AC
:1037F000002000E00220C0B202B0B0BD704700005F
:10380000704700002DE9F04381B004469946164602
:103810000F4694F8410020281AD1002F4FF00100E4
:1038200018BF002E00F0988000252120656484F8E0
:103830004100FEF79BF8A684E6848046A068B0F5B8
:10384000805F07D12669002E0CBF3D463E4602E050
:10385000022081E03E46E28C206801688AB319F1BB
:10386000010217D0B9F1000F4CD100BF09066DD588
:1038700016B116F8011B04E035F8021B00266FF3A1
:103880005F214160E18C0139E184E28C0168002A0A
:10389000ECD116E0090603D4016811F0800FFBD0CB
:1038A00016B116F8011B04E035F8021B00266FF371
:1038B0005F214160E18C0139E184E28C0168002ADA
:1038C000E8D1490618D4B9F1000F3BD019F1010134
:1038D00006D100BF016811F0400FFBD00CE000BF23
:1038E000FEF744F8A0EB0800484539D82068C168C5
:1038F000006810F0400FF3D00020202184F8411020
:103900002AE000BF09060BD4FEF730F8A0EB080050
:1039100048451DD82068C168016811F0800FF3D0B8
:1039200016B116F8011B04E035F8021B00266FF3F0
:103930005F214160E18C0139E184E28C0168002A59
:10394000E0D1BEE7FEF712F80320D6E7FEF70EF847
:10395000202084F841000320C0B201B0BDE8F0830C
:103960000320CAE77047000040F60410C2F20000CE
:103970000168CA6842F01002CA6040F2A0016422E5
:10398000C2F200010231FFF7DDBE0000F0B581B0E8
:1039900040F2A005C2F20005287800283ED00020A1
:1039A000287040F60410C2F20000FFF757FB40F207
:1039B0008010C2F2000000684068C0F164006870C6
:1039C00017A002F071FD01F0E3FE6878042803D32C
:1039D00019A002F069FD6878A8B100271BA4002691
:1039E00016F0FF0F05D016F0030004BF0A2002F006
:1039F00055FDE8198178204602F0D6F8687801363E
:103A0000F7B28742ECD30A2002F048FD40F60410DA
:103A1000A91C6422C2F20000FFF794FE01B0F0BDC1
:103A20003C484D4920554152543220527820466C32
:103A30006167213E00000000496E73747275637403
:103A4000696F6E206572726F7221000025303258E6
:103A500020000000D0B14A1EFF2A17D851B140F211
:103A6000146C0B46C2F2000C10F8012B013B0CF851
:103A7000012BF9D140F604108AB240F2146164239C
:103A8000C2F20000C2F20001FFF7BCBE0120704785
:103A9000FEE7000041F200004FF40051C4F20100C3
:103AA000FDF756BF10B584B040F2147042F20042E8
:103AB00000210124C2F20000C4F201020391CDE909
:103AC000011102604FF46022816004730175C261CC
:103AD00041600461FDF78AF9002818BFFDF760F81E
:103AE000052001A9CDE901040320039040F21470E0
:103AF000C2F20000FDF7E2F8002818BFFDF750F809
:103B000004B010BD80B582B041F214000022C4F2AE
:103B10000200016841F0010101600021006800F02D
:103B20000100019001980D20FDF798FF0D20FDF791
:103B300085FF0F2000210022FDF790FF0F20FDF7E9
:103B40007DFF102000210022FDF788FF102002B029
:103B5000BDE88040FDF772BF2DE9F04F85B041F21E
:103B6000180040F6000B00224FF400564FF00008FA
:103B7000C4F20200C4F2010B01680BF5006741F0CA
:103B800010010160016801F01001019101990168C3
:103B900041F020010160016801F0200101910199CB
:103BA000016841F004010160016801F00401019124
:103BB0000199016841F0080101604FF4005100686B
:103BC00000F00800019001983846FDF7C9FE5846FC
:103BD0004FF4805100224FF48054FDF7C1FE0BF5E5
:103BE00080654FF4407101224FF001092846FDF72E
:103BF000B7FECDE9016901AE4FF0020A3846CDF8B3
:103C00000C803146CDF810A0FDF78AFD80203146AA
:103C100001900020C1F23100CDE9020A5846FDF7BB
:103C20007FFD01941127032458463146CDE90278DF
:103C30000494FDF775FD4FF4407001A981E88102FD
:103C4000284631460494FDF76BFD17200021002221
:103C5000FDF704FF1720FDF7F1FE05B0BDE8F08F7A
:103C600080B540F2447043F600014FF40072C2F296
:103C70000000C4F2000101604FF482714160002134
:103C8000C0E90411C0E902118162C0E90811C0E96C
:103C900006210A21C162FEF711FB00281CBFBDE806
:103CA0008040FCF77DBF80BD70B59CB040F29C7039
:103CB00042F6004500214F2244F25063C2F2000058
:103CC000C4F20105CDE91511CDE913111191CDE92A
:103CD0000F11CDE90D11CDE90B11CDE90911CDE998
:103CE0000711CDE90511CDE90311CDE90111C0E9B5
:103CF0000052C0E90213C0E904118161FEF7FCFB28
:103D0000002818BFFCF74CFF4FF4805013A9139004
:103D100040F29C70C2F20000FEF7DCFC002818BFE5
:103D2000FCF73EFF40F29C70C2F20000FFF788F8FB
:103D3000002818BFFCF734FF40F29C70002410A943
:103D4000C2F20000CDE91044FEF79AFB002818BF2C
:103D5000FCF726FF60200F94CDE90D44CDE90B441C
:103D600009A90022CDE9090440F29C70C2F20000CA
:103D7000FEF76CFF002818BFFCF712FF40F29C70A2
:103D800009A90422C2F20000FEF760FF002818BF54
:103D9000FCF706FF40F29C7009A90822C2F200005D
:103DA000FEF754FF002818BFFCF7FAFE40F29C70A3
:103DB00009A90C22C2F20000FEF748FF002818BF34
:103DC000FCF7EEFE40F29C7400264FF4005001A96F
:103DD000C2F200040596CDE90366CDE901660690BE
:103DE00008962046FEF722FB002818BFFCF7D8FEF5
:103DF000CDE91A66CDE918662068A84201D01CB04A
:103E000070BD41F21800C4F20200016841F00401E3
:103E1000016018A9006800F00400179017984FF48B
:103E200070601890022019901B90A5F51050FDF7B6
:103E300077FC1CB070BD000010B58CB040F2E4708F
:103E400000244FF080414FF6FF72C2F200000B9445
:103E5000CDE90944CDE90744CDE90544CDE9034462
:103E6000CDE90044C0E90014C0E902420461846164
:103E7000FEF7B8FD002818BFFCF792FE042007A942
:103E800007905020CDE9080440F2E470CDE90A44DF
:103E9000C2F20000FFF7BAF8002818BFFCF780FE56
:103EA0000020012100220390CDE90410069040F289
:103EB000E47003A9C2F20000FEF7DEFC002818BF80
:103EC000FCF76EFE022003A90422CDE9030040F2B4
:103ED000E470C2F20000FEF7CFFC002818BFFCF728
:103EE0005FFE00206946CDE9000040F2E470C2F2B6
:103EF0000000FEF7C5FA002818BFFCF751FE0CB011
:103F000010BD000080B586B040F62C0040F20042A3
:103F1000002147234FF6FF7CC2F20000C4F20002EA
:103F2000CDE90411CDE90211CDE90011C0E900236A
:103F3000C0E9021C016180218161FEF7DDFA0028E1
:103F400018BFFCF72DFE4FF4805002A9029040F6F6
:103F50002C00C2F20000FEF7BDFB002818BFFCF7E2
:103F60001FFE00206946CDE9000040F62C00C2F299
:103F70000000FEF785FA002818BFFCF711FE06B016
:103F800080BD000080B586B040F6740040F60002A7
:103F9000002140F2CF234FF47A7CC2F20000C4F239
:103FA0000002CDE90411CDE90211CDE90011C0E90B
:103FB0000023C0E9021C016180218161FEF79CFAA7
:103FC000002818BFFCF7ECFD4FF4805002A90290C6
:103FD00040F67400C2F20000FEF77CFB002818BF18
:103FE000FCF7DEFD00206946CDE9000040F67400D4
:103FF000C2F20000FEF744FA002818BFFCF7D0FD1B
:1040000006B080BD80B540F6BC0043F600014FF419
:10401000E13200234FF00C0CC2F20000C4F20101A7
:1040200080E80E00C0E90333C0E905C3C361FFF7B0
:1040300007FA00281CBFBDE88040FCF7B1BD80BD79
:1040400080B540F6041044F200414FF4E132002301
:104050004FF00C0CC2F20000C4F2000180E80E0028
:10406000C0E90333C0E905C3C361FFF7E9F90028DC
:104070001CBFBDE88040FCF793BD80BD80B540F615
:104080004C1044F600014FF4E13200234FF00C0CC9
:10409000C2F20000C4F2000180E80E00C0E9033360
:1040A000C0E905C3C361FFF7CBF900281CBFBDE819
:1040B0008040FCF775BD80BDFEE7000040F674004F
:1040C000C2F20000FEF7D2BAFEE7000080B540F26F
:1040D00014204FF48061C2F20000FCF72AF880BD82
:1040E0002DE9F04184B040F60044054600264FF02B
:1040F00080080027C4F2010428FA07F04FF4007189
:1041000010EA0502204618BF0122FDF729FCADF890
:10411000066004E0BDF806000130ADF80600BDF809
:1041200006000028F6D020464FF480710122FDF7EA
:1041300017FCADF8086004E0BDF808000130ADF8E8
:104140000800BDF808000028F6D020464FF4807122
:104150000022FDF705FCADF80A6004E0BDF80A0096
:104160000130ADF80A00BDF80A000028F6D001378A
:10417000082FC1D120464FF480710122FDF7F0FBDA
:104180000025ADF80C5004E0BDF80C000130ADF88E
:104190000C00BDF80C000028F6D020464FF48071CA
:1041A0000022FDF7DDFBADF80E50BDF80E0040B962
:1041B000BDF80E000130ADF80E00BDF80E0000286D
:1041C000F6D004B0BDE8F081B0B582B040F600444E
:1041D0004FF400710122C4F201042046FDF7C0FB38
:1041E0000025ADF8005004E0BDF800000130ADF846
:1041F0000000BDF800000028F6D020464FF4807182
:104200000122FDF7ADFBADF8025004E0BDF802005D
:104210000130ADF80200BDF802000028F6D02046BB
:104220004FF4007100220025FDF79AFBADF8045011
:1042300005E000BFBDF804000130ADF80400BDF892
:1042400004000028F6D020464FF480710022FDF7CC
:1042500087FBADF80650BDF8060040B9BDF8060072
:104260000130ADF80600BDF806000028F6D002B017
:10427000B0BD0000B0B582B040F600444FF400710C
:1042800000220025C4F201042046FDF769FBADF8C9
:10429000025004E0BDF802000130ADF80200BDF8A4
:1042A00002000028F6D020464FF480710122FDF76D
:1042B00057FBADF8045004E0BDF804000130ADF840
:1042C0000400BDF804000028F6D020464FF4007129
:1042D0000122FDF745FB0020ADF80600BDF8060001
:1042E00048B900BFBDF806000130ADF80600BDF8C2
:1042F00006000028F6D002B0B0BD0000B0B582B014
:1043000040F600444FF480710122C4F201042046BB
:10431000FDF726FB0025ADF8045004E0BDF80400CD
:104320000130ADF80400BDF804000028F6D02046A6
:104330004FF400710122FDF713FBADF80650BDF8F4
:10434000060040B9BDF806000130ADF80600BDF822
:1043500006000028F6D0FFF737FF7820FFF7C0FEF1
:104360000020FFF7BDFEAE20FFF7BAFEFFF782FF89
:10437000FFF72AFF7820FFF7B3FE0020FFF7B0FE1B
:10438000D520FFF7ADFEFFF775FFFFF71DFF782083
:10439000FFF7A6FE0020FFF7A3FE8020FFF7A0FE98
:1043A000FFF768FFFFF710FF7820FFF799FE002066
:1043B000FFF796FEA820FFF793FEFFF75BFFFFF7DE
:1043C00003FF7820FFF78CFE0020FFF789FE3F20D7
:1043D000FFF786FEFFF74EFFFFF7F6FE7820FFF7A8
:1043E0007FFE0020FFF77CFE0020FFF779FEFFF73D
:1043F00041FFFFF7E9FE7820FFF772FE0020FFF78C
:104400006FFE4020FFF76CFEFFF734FFFFF7DCFE86
:104410007820FFF765FE0020FFF762FEA120FFF77E
:104420005FFEFFF727FFFFF7CFFE7820FFF758FE6C
:104430000020FFF755FEC820FFF752FEFFF71AFFD6
:10444000FFF7C2FE7820FFF74BFE0020FFF748FE83
:10445000DA20FFF745FEFFF70DFFFFF7B5FE7820E6
:10446000FFF73EFE0020FFF73BFE1220FFF738FE6D
:10447000FFF700FFFFF7A8FE7820FFF731FE0020CE
:10448000FFF72EFE8120FFF72BFEFFF7F3FEFFF76D
:104490009BFE7820FFF724FE0020FFF721FECF20AF
:1044A000FFF71EFEFFF7E6FEFFF78EFE7820FFF710
:1044B00017FE0020FFF714FED920FFF711FEFFF7CB
:1044C000D9FEFFF781FE7820FFF70AFE0020FFF7F4
:1044D00007FE2220FFF704FEFFF7CCFEFFF774FE75
:1044E0007820FFF7FDFD0020FFF7FAFDDB20FFF746
:1044F000F7FDFFF7BFFEFFF767FE7820FFF7F0FD3F
:104500000020FFF7EDFD4020FFF7EAFDFFF7B2FEC8
:10451000FFF75AFE7820FFF7E3FD0020FFF7E0FDEC
:10452000A420FFF7DDFDFFF7A5FEFFF74DFE782085
:10453000FFF7D6FD0020FFF7D3FDA620FFF7D0FD43
:10454000FFF798FEFFF740FE7820FFF7C9FD002037
:10455000FFF7C6FD8D20FFF7C3FDFFF78BFEFFF7CA
:1045600033FE7820FFF7BCFD0020FFF7B9FD1420D3
:10457000FFF7B6FDFFF77EFEFFF726FE7820FFF778
:10458000AFFD0020FFF7ACFDAF20FFF7A9FDFFF75F
:1045900071FE40F214204FF48061C2F20000FBF77C
:1045A000C8FD02B0BDE8B04000F0FCB8B0B50C46A4
:1045B0000546FFF709FE7820FFF792FD0020FFF780
:1045C0008FFD45F0B000FFF78BFDFFF753FEFFF7BF
:1045D000FBFD7820FFF784FD0020FFF781FD02340A
:1045E000102040EA1410FFF77BFDFFF743FEFFF7B2
:1045F000EBFD7820FFF774FD0020FFF771FD04F05C
:104600000F00FFF76DFDBDE8B040FFF733BE0000BF
:104610002DE9F04F84B09046002BCDE9023043D015
:104620000298B8F1000F00EB010E38D0039840F269
:1046300014290C468A46C2F2000908EB000600BFA6
:104640001FFA8AF2402A039A1ED2E217012004EBD5
:10465000527204F0070400FA04F403984FEAE20BE4
:1046600084F0FF0705460446A2B201347F2A9FBFAB
:1046700009EBCB1212F805C007EA0C03535525B21B
:10468000AE42F1DC04E000BF013214B2A642FBDC12
:104690000AF1010A0FFA8AF4A645D1DC04E00A46C1
:1046A000013213B29E45FBDCCA1700294FF0000B04
:1046B00001EB527222F007034FEAE202A1EB030E74
:1046C00002EBE13040F21421C2F20001B8BF0EF15A
:1046D000080E019001EBC010CEF1080A009002987C
:1046E000411ECA1701EB5271C81000210290B8F1A7
:1046F000000F2CD11EE000BF072E1BD80198039B92
:1047000040F21421C2F200011044424601EBC011F4
:104710007F2B08D82878CF1897F8806020FA0AF005
:10472000304387F88000013A05F1010503F10103E8
:10473000EED100BF02980BF1010B5FFA8BF18842BA
:10474000BCBF04B0BDE8F08FB8F1000FF2D00D98F7
:104750005FFA8BF208FB0205019801444E1C072901
:10476000CAD80098039B00EBC21142467F2B13D896
:1047700095F8009011F803C0072E09FA0EF444EAE8
:104780000C04CC5408D82C78C81890F8807024FAFF
:104790000AF4274380F8807001350133013AE5D1EE
:1047A000C8E70000B0B5002000210025FFF7FEFE9D
:1047B000FFF70AFD7820FFF793FC4020FFF790FCFD
:1047C00040F21424C2F20004605DFFF789FC013559
:1047D000802DF9D1FFF74EFD012000210025FFF7C4
:1047E000E5FEFFF7F1FC7820FFF77AFC4020FFF7A9
:1047F00077FC00BF601990F88000FFF771FC01356D
:10480000802DF7D1FFF736FD022000210025FFF7AC
:10481000CDFEFFF7D9FC7820FFF762FC4020FFF7C0
:104820005FFC00BF601990F80001FFF759FC0135EB
:10483000802DF7D1FFF71EFD032000210025FFF793
:10484000B5FEFFF7C1FC7820FFF74AFC4020FFF7D8
:1048500047FC00BF601990F88001FFF741FC01356B
:10486000802DF7D1FFF706FD042000210025FFF77A
:104870009DFEFFF7A9FC7820FFF732FC4020FFF7F0
:104880002FFC00BF601990F80002FFF729FC0135EA
:10489000802DF7D1FFF7EEFC052000210025FFF762
:1048A00085FEFFF791FC7820FFF71AFC4020FFF708
:1048B00017FC00BF601990F88002FFF711FC01356A
:1048C000802DF7D1FFF7D6FC062000210025FFF749
:1048D0006DFEFFF779FC7820FFF702FC4020FFF720
:1048E000FFFB00BF601990F80003FFF7F9FB0135EB
:1048F000802DF7D1FFF7BEFC072000210025FFF730
:1049000055FEFFF761FC7820FFF7EAFB4020FFF738
:10491000E7FB00BF601990F88003FFF7E1FB01356A
:10492000802DF7D1BDE8B040FFF7A4BC7047000070
:1049300070470000FDF720B87047000040F6740093
:10494000C2F20000FEF7F2B880B5D0F800E0DEF861
:104950000800D1E900C323F0070220F077004FEAF6
:1049600033131043072B40EA0C00CEF8080007D899
:104970000020DFE803F004040404071E344E80BD69
:10498000012080BDBCF1050F04BF012080BDDEF811
:104990002000DEF8202022F00102CEF82020DEF8F0
:1049A0001820096922F0F00242EA0111CEF818102D
:1049B0002BE088680969DEF82020DEF8203023F03B
:1049C0000103CEF82030DEF8183023F0F00343EA7C
:1049D0000111CEF8181022F00A01084315E088688A
:1049E0000969DEF82020DEF8203023F01003CEF82D
:1049F0002030DEF8183023F4704343EA0131CEF85A
:104A0000181022F0A00141EA0010CEF8200000208A
:104A100080BDD1E902020969104340EA0120DEF8B5
:104A2000081021F47F410843CEF80800002080BD23
:104A3000406A0021C185C184FEF77EBB406A0168DF
:104A40004A6990F84130212B14D112F0800211D024
:104A50000022C28401E000BF016851E8031F026820
:104A600021F0C00142E80313002BF5D1202180F88A
:104A7000411001684A6990F84230222B2DD112F082
:104A800040022AD00022C28501E000BF016851E83F
:104A9000031F026821F4907142E80313002BF5D143
:104AA000016851E8051F026821F0010142E8051381
:104AB000002BF5D1016B01290AD100BF016851E833
:104AC000031F026821F0100142E80313002BF5D107
:104AD000202180F8421000210163416C41F0100157
:104AE0004164FEF729BB00000168406A096811F0C3
:104AF000200F32D10021C185016851E8031F0268EF
:104B000021F4807142E80313002BF5D1016851E8CC
:104B1000051F026821F0010142E80513002BF5D1C1
:104B2000016851E8051F026821F0400142E80513C1
:104B3000002BF5D12021844680F842105CF8302FFC
:104B4000012A0CD1026852E8032F036822F01002F8
:104B500043E803210029F5D101E000F1300C0021E8
:104B60004163DCF80010012918BFFEF747BE818DB4
:104B7000FEF772BA406A01214163016B012918BF37
:104B8000FEF73EBE818D4908FEF766BA90F84210E6
:104B9000222918BF70478368B3F5805F06D1026988
:104BA00000F12801A2B1D1F800C008E00146002BB5
:104BB00051F828CF01D103690BB17F2300E0FF2317
:104BC000026852681A4001238CF800200A6806E047
:104BD0000368826A5B686FF35F23138002231A44C1
:104BE0000A604FF6FF72C18D01391142C18500D0B4
:104BF00070470168CA6822F02002CA60CA6822F4BD
:104C00008072CA604A6922F001024A61202280F85B
:104C1000422000224263036B012B18BFFEF7EEBD5A
:104C2000026300BF51E8031F026821F0100142E84F
:104C300003130168002BF5D10A6812F0100F08D099
:104C400081B0002200920A680092496800910099A0
:104C500001B0818DFEF700BA40F6BC00C2F2000040
:104C6000FEF76CBA10B582B040F60414C2F200042C
:104C70002046FEF763FA2068016811F0100F0CD08F
:104C80000021019101680191012140680190019882
:104C900040F2A000C2F20000017002B010BD00009E
:104CA00010B582B040F64C14C2F200042046FEF764
:104CB00045FA2068016811F0100F0CD00021019115
:104CC00001680191012140680190019840F21010A3
:104CD000C2F20000017002B010BD0000FEE700004B
:104CE000B0B582B040F214741421C2F20004204620
:104CF000FCF75CF92046FCF775F801461FA000F0B0
:104D000053FF2046FCF76EF840F210049628C2F2DA
:104D100000040BD8A07848B1AA2024F8010FD4F8D9
:104D200007102046FEF796FE02B0B0BD40F21470A8
:104D3000C2F20000FCF756F8B0F57A7F1BD3A078DA
:104D4000C8B9DD2004F8010FD4F807102046FEF79B
:104D500081FE48F2F4000021802240230025C0F6A5
:104D6000000000900020FFF753FCFFF71BFD01201F
:104D7000A4F80350607002B0B0BD00BF4C44522094
:104D8000414443203A2025642C0A000080B582B0BB
:104D9000019040F6BC0001A901224FF47A73C2F2DF
:104DA0000000FEF72FFD019802B080BD70B594B0F1
:104DB000FCF7ECFD002401204FF480310225CDE901
:104DC0000F44CDE90D440994CDE90744CDE90544EC
:104DD000CDE90344CDE901440A90CDE90B140E90CE
:104DE0004FF4E010CDE9115113900AA8FDF776F8C1
:104DF00018B1EFF3108072B6FEE70F200221CDE963
:104E000005054FF480600794CDE9080405A8FCF778
:104E100063FF20B1EFF3108072B600BFFEE70220FF
:104E200001904FF40040039001A8FCF7CBFE20B1A5
:104E3000EFF3108072B600BFFEE7FEF78DFEFEF7BF
:104E400061FEFEF7F9FFFFF75DF8FFF7DBF8FFF70C
:104E5000F7F8FFF713F9FEF725FEFEF701FFFEF75F
:104E600023FFFFF78FF84FF4FA70FCF705FC40F2D0
:104E7000100500210026C2F2000505F10C00FBF729
:104E800095FE40F21474C2F200042046FCF7E4F9E7
:104E90002046FBF7A1FE1420FCF7EEFB2046FCF7B2
:104EA00067F9FFF713F948F2AC600021562240235E
:104EB000C0F6000000901620FFF7AAFBFFF772FC77
:104EC0004FF44870FCF7D8FBFFF700F948F6343090
:104ED0000A2150225023C0F6000000902620FFF740
:104EE00097FBFFF75FFC4FF44870FCF7C5FB992078
:104EF0002C4604F8010FD4F807102046FEF7AAFD4F
:104F000000F0C6FAFEF730FDFBF78AFDFFF7D6F892
:104F10001334204600F02CF82046462100F0B0FA69
:104F20002046002100F094FA46F2F444C0F6000452
:104F300002E000BFFFF7D4FEFBF784FDFEF726FD7D
:104F400028780028F6D0FEF7A5FD2E70A88801303D
:104F5000A88080B27828EDD3002000218022402351
:104F6000AE800094FFF754FBFFF71CFCE2E7000063
:104F7000002808BF70474FF4485101800021C0F855
:104F80000E10C0F80A10C0F80610C0F80210002079
:104F9000C4F2B42001460246034600F09DBA000068
:104FA0002DE9F04FADF51B7D0446002C18BF002AFB
:104FB00000F05281052900F24F816FF01D00009230
:104FC00000222D264FF003084FF47A754FF02D0A7A
:104FD0002D274FF02D0E4FF0010BA0F11E030120E5
:104FE0000192039002209C46994604900296642008
:104FF0001E46DFE801F0034386A2E3CA00234FF018
:105000001E0A32204FF6E2714FF008084FF6E277A1
:105010004FF01E0E4FF6E27C4FF6E279ADF81430F9
:10502000ADF816A0ADF818A0ADF81A300790ADF89D
:105030002010ADF822A0ADF824A0ADF826100A90FB
:10504000ADF82C10ADF82E30ADF83030ADF8321090
:105050000721CDE90D03CDE90F30ADF844A0ADF83F
:105060004630ADF84830ADF84AA0139004910621BF
:105070000391052101914FF6E2713CE000234FF6C8
:10508000E27132201E274FF008084FF6E27A4FF601
:10509000E27E4FF01E0C4FF01E09ADF81430ADF853
:1050A0001610ADF81810ADF81A300790ADF8207052
:1050B000ADF82210ADF82410ADF826700A90ADF8C6
:1050C0002C70ADF82E30ADF83030ADF83270CDE93F
:1050D0000D03CDE90F30ADF84410ADF84630ADF812
:1050E0004830ADF84A10072113900491062103912E
:1050F000052101911E210291DDF800B00026322524
:105100005CE04FF6E27000231E214FF004084FF6DA
:10511000E27A4FF6E2774FF01E0E4FF6E27C4FF048
:105120001E090026ADF81400ADF81630ADF81830A1
:10513000ADF81A1003211E201BE04FF0000C4FF6B3
:10514000E2701E214FF004084FF6E27A4FF6E27744
:105150004FF01E0E4FF6E2734FF000091E26ADF819
:1051600014C0ADF81600ADF8181003211E20ADF8DC
:105170001AC0049102210290C820039101210790D6
:105180000191DDF800B0C82518E0012000214FF0A2
:105190000308C8253C234FF02D0A2D274FF02D0E74
:1051A0004FF03C0C4FF03C093C264FF0010B0390B4
:1051B000022001912D21049064200291019905AAF9
:1051C000BBF1000F01EB410122F821A002EB8101AC
:1051D0004F80029F8F80A1F806E08860039901EB61
:1051E000410122F8213002EB81014FF00003A1F8C8
:1051F00002C0A1F80490CE808D60049901EB4101BA
:1052000042F8213002EB8101C1E9013024D020783D
:1052100000264FF001090DF1140A00BFC0B20228A8
:1052200002D1022014E000BF4746554684F80090A2
:10523000A86829464208204600F0EAF9A868400814
:10524000FCF71AFA013F05F10C05F1D1002020709E
:105250000136B1B25945E1D30DF51B7DBDE8F08FA4
:105260002DE9F043ADF5177D0446002C00F0EC80ED
:10527000042900F2E98002264FF0010C4FF4FA7E77
:105280003C254FF000084FF000093C274FF4FA731B
:1052900000EB81020020DFE801F003AA1241640064
:1052A00002264FF0010C4FF4FA7E4FF000083C202C
:1052B0004FF03C09002500274FF4FA7397E04FF0B8
:1052C0001E094FF6E2704FF4967E05264FF0040C4F
:1052D0004FF003084FF6E2751E274FF49673ADF8B2
:1052E0000490ADF80600ADF80890ADF80A00CDF8CE
:1052F0000CE0ADF81000ADF81290ADF81400ADF868
:105300001690CDF818E0ADF81C90ADF81E00ADF881
:105310002090ADF82200CDF824E068E000204FF0A6
:1053200050094FF4FA7332214FF4967E04264FF061
:10533000030C4FF0020800250027ADF80400ADF87B
:105340000690ADF80800ADF80A000393ADF8100020
:10535000ADF81210ADF81400ADF81600CDF818E055
:1053600045E050254FF4FA704FF03C094FF4967326
:1053700008264FF0070C4FF4487E4FF006085027E0
:10538000ADF80450ADF80650ADF80850ADF80A502D
:1053900003905A20ADF81090ADF81200ADF81450FB
:1053A000ADF816500693ADF81C00ADF81E90ADF8A0
:1053B0002050ADF822500993ADF82890ADF82A009E
:1053C000ADF82C50ADF82E500C93ADF83400ADF87C
:1053D0003690ADF83850ADF83A500F93ADF8409094
:1053E000ADF84200ADF84450ADF84650129308EBCA
:1053F000480101AA22F8210002EB81000021A0F857
:1054000002908580C780C0F808E00CEB4C0042F8A1
:10541000201002EB8000C0E901132078022813D08D
:10542000012001AD207000BFA8682946420820462F
:1054300000F0EEF8A8684008FCF71EF9013E05F1FF
:105440000C05F1D1002020700DF5177DBDE8F0832B
:10545000002808BF704703290AD846F2CC4249B257
:10546000C0F6000252F821104FF4FA7200F0D0B8E2
:1054700048F62C314FF4FA72C0F6000100F0C8B8BB
:10548000002808BF7047642928BF64214170704715
:1054900010B540F29C740021C2F200042046FDF7D2
:1054A00047FD20460421FDF743FD20460821FDF776
:1054B0003FFD20460C21BDE81040FDF739BD00003E
:1054C00040F29C7040F24651C2F200000068416315
:1054D0008163C163016470472DE9F04F81B00746D5
:1054E0000D464FF00040984616463946FAF77EFEC4
:1054F000002104463846CCF2B421FBF775F840F29F
:10550000000900281CBF0024C4F2B424C4F22019EE
:1055100020464946FAF770FE4CF2000AC4F2A84A47
:105520005146FAF711FEFBF7A2F840F2000B0446D1
:105530003846C4F2B42B5946FBF764F8002840F211
:105540009C705946C2F2000018BF4FF4E17407681E
:1055500028467C63FBF756F80028284649461CBFBE
:105560000020C4F2B420FAF747FE5146FAF7ECFDEA
:10557000FBF77DF8044628460025CCF2B4252946E1
:10558000FBF732F800284FF00040314618BF4FF4C7
:10559000E174BC63FAF72AFE044630462946FBF75D
:1055A00023F8002849461CBF0024C4F2B424204636
:1055B000FAF722FE5146FAF7C7FDFBF758F8044602
:1055C00030465946FBF71EF800284046594618BF9A
:1055D0004FF4E174FC63FBF715F800284046494698
:1055E0001CBF0020C4F2B420FAF706FE5146FAF7B9
:1055F000ABFDFBF73CF8044640462946FAF7F4FFBA
:10560000002818BF4FF4E1743C6401B0BDE8F08F8E
:105610002DE9F04F87B004462078022800F0B480CE
:105620000868019164264968C4F80E10C4F80A009D
:10563000012048F21F512070C5F2EB116078C0F1D3
:1056400064005043A0FB01014809642888BF4E094B
:10565000FCF78CF90746FCF789F9C51B0496B5429F
:105660006DD20498FAF7E5FFCDE902072846FAF76C
:10567000E0FF0299FAF7F2FDB4F90210074606912D
:10568000B4F90A00B4F904A0B4F906B0B4F90850AA
:10569000401AFAF7C5FF01463846FAF7ADFDFAF7AA
:1056A000CDFF0590B4F90C00A0EB0A00FAF7B8FFA3
:1056B00001463846FAF7A0FDFAF7C0FF0646B4F9EE
:1056C0000E00A0EB0B00FAF7ABFF01463846FAF7E5
:1056D00093FDFAF7B3FF8046B4F91000401BFAF7C8
:1056E0009FFF01463846FAF787FDFAF7A7FF00EB60
:1056F0000509DDE9051008EB0B075644084400B224
:10570000FAF78EFF054630B2FAF78AFF064638B23E
:10571000FAF786FF07460FFA89F0FAF781FF3A4653
:10572000039F034628463146FFF7D6FE1420FBF7B9
:10573000A3FFFCF71BF9C51B0498854296D3019A79
:1057400010685168C4F80610C4F80200B2F90000ED
:10575000B2F90250B2F90460B2F90670FAF760FFCC
:1057600080462846FAF75CFF05463046FAF758FFB0
:1057700006463846FAF754FF034640462946324665
:10578000FFF7AAFE0020207007B0BDE8F08F0000F0
:1057900010B582B040F2A200C2F2000000782938B1
:1057A000A32800F2B980DFE810F0A400B700B7002A
:1057B000B700B700B700B700B900C700DA00ED00C6
:1057C000FE000F012001340147015101B700B7006D
:1057D000B700B700B700B700B700640178018C01CB
:1057E000A301B700B700B700B700B700B700B70014
:1057F000B700B700B700B700B700B700B700B700F1
:10580000B700B700B700B700B700B700B700B700E0
:10581000B700B700B700B700B700B700B700B700D0
:10582000B700B700B700B700B700B700B700B700C0
:10583000B700B700B700B700B700B700B700B700B0
:10584000B700B700B700B700B700B700B700B700A0
:10585000B700B700B700B700B700B700B700B70090
:10586000B700B700B700B700B700B700B700B70080
:10587000B700B700B700B700B700B700B700B70070
:10588000B700B700B700B700B700B700B700B70060
:10589000B700B700B700B700B700B700B700B70050
:1058A000B700B700B700B700B700B700BB01B7003B
:1058B000B700B700B700B700B700B700B700B70030
:1058C000B700B700B700B700B700B700B700410195
:1058D000B700B700B700B700B700B700B700B70010
:1058E000B700B700B700B700B700B700B700B70000
:1058F000E00146F2F440002180224023C0F600007F
:1059000000900020FEF784FEFEF74CFF40F22400DA
:105910000321C2F2000042E102B010BD46F2F440A1
:10592000002180224023C0F6000000900020FEF7F6
:105930006FFEFEF737FF2DE146F2F4400021802292
:105940004023C0F6000000900020FEF761FEFEF745
:1059500029FF40F224000021C2F200001FE146F2BC
:10596000F440002180224023C0F600000090002077
:10597000FEF74EFEFEF716FF40F224000221C2F2AF
:1059800000000CE146F6F400002180224023C0F61E
:10599000000000900020FEF73BFEFEF703FF40F200
:1059A0002400002131E046F6F4000021802240234B
:1059B000C0F6000000900020FEF72AFEFEF7F2FE7F
:1059C00040F22400012120E046F6F440002180222C
:1059D0004023C0F6000000900020FEF719FEFEF7FD
:1059E000E1FE40F2240002210FE047F2F400002122
:1059F00080224023C0F6000000900020FEF708FE41
:105A0000FEF7D0FE40F224000321C2F20000022281
:105A100081E047F6F400002180224023C0F6000018
:105A200000900020FEF7F4FDFEF7BCFE40F22400DB
:105A30000221C2F2000056E040F224005A21C2F2D4
:105A4000000002B0BDE81040FFF71ABD47F6F400B1
:105A5000002180224023C0F6000000900020FEF7C5
:105A6000D7FDFEF79FFE40F224000421C2F20000A1
:105A700039E046F6F400002180224023C0F6000001
:105A800000900020FEF7C4FDFEF78CFE40F22400DB
:105A900004210122C2F200003DE046F6F40000219C
:105AA00080224023C0F6000000900020FEF7B0FDE9
:105AB000FEF778FE40F2240005210122C2F2000028
:105AC00029E047F6F440002180224023C0F6000080
:105AD00000900020FEF79CFDFEF764FE40F22400DB
